:020000002EC010
:1000020059C059C0C6C0A8C0FACFA4C0A4C0F7CF77
:100012009CC0F5CF51C0F3CF6AC0F1CFF0CFEFCF84
:10002200EECFEDCF000000000000000053746172BB
:1000320074696E672E2E2E2E0D0A00253032643A18
:1000420025303364207B25647D200D0A00000100E9
:10005200020026000600040028000000F894EE27A3
:10006200ECBBF1E0FBBFEBBFE5BF8DE0A2E0BB273D
:10007200ED938A95E9F780E094E0A0E6ED9301978D
:10008200E9F7E0E5F0E085919591009761F0A5919F
:10009200B59105901590BF01F00105900D92019761
:1000A200E1F7FB01F0CFEFE5EDBFE4E0EEBFC0E624
:1000B200D1E0A3C018951895B0D298D31BB10CB15A
:1000C200E12FEC7189F4E52D5394F0E0EC59FE4FE9
:1000D2000083E4E1E51509F455247394E4E1E7159E
:1000E20019F47724689421F8099119910FC095D2D7
:1000F200882061F08A94E92D9394F0E0E858FE4F4D
:10010200E081ECB9E4E1E91509F49924E991EFBF42
:10011200F991E9911895AA93E4E1E815E9F3F894C5
:10012200882011F45D990DC0E62D6394F0E0E85843
:10013200FE4FA881A083E4E1E61509F466248394C6
:1001420002C0E881ECB9789434C0EA93ECE9E2BFEA
:10015200E9911895189518956A937A93AA93BA9388
:10016200EA93FA93EFB7EA93E6E0E4BDA0E6B1E0E2
:1001720012D3EF5FFF4F6F4F7F4F12D320FCC29815
:10018200E991EFBFF991E991B991A99179916991B9
:10019200189520FCC29A1895AA93E881E06CE7B9F9
:1001A2008BE18A95F1F7369A349BFECF349AE4B10B
:1001B200F5B121960895AA9319D3EA81F0E08F014F
:1001C200102F0027D801E4E6F0E09FD28F01E0E093
:1001D200F1E0E01BF10B8F01F070DF01E3B5F0E01D
:1001E200EA17FB0711F0E02FE3BD689420F805D36E
:1001F20094C0E89420F8C29808952497FF2409E057
:1002020013E0E0E0E7BBE8BBE4BBE5BBE1BBE2BB7C
:10021200E2E0E3BFECE9E2BFE0E0EFBDEAE0EEBD21
:10022200E0E0EDBDECBDE7BDE6BDE7E2EBBDEFE032
:10023200EABDE3E2E9BDE7E2E8BDE0E0E2BDE3E01A
:10024200E5BDE6E0E4BDE7EEE3BDE9EDE9BFEBB70E
:10025200E06CEBBFEAE0E5BFE0ECEABFE0E0EBB95F
:10026200E8EDEAB9E6E8E0BDE0E0E0BDE3E3E9B9E4
:10027200E0E8E8B9E0ECE7B9E3E8E6B9E0E0E0BFDE
:10028200EDB9E6BFE894F0F8E7E0E7BBE0E0E09321
:100292006001E0936101E0936201E0936301C2D1E6
:1002A2007894EEE2F0E0CBD180E082D122967DD24A
:1002B200C9D18ED230F5EDE3F0E0C1D1CCD138D244
:1002C200DF01CB01ECE3F0E060E070E056D277D2E0
:1002D200C2D153D274D2A0E05FDF662777276FD2F4
:1002E2008CE066D12E96A0E0F0FCA1E0E1E0EA27E6
:1002F20074D2F0F8F0FE03C0AAE05DDF01C079DF3E
:1003020091D1D5CFFFCFADD1AA8105DFA881B98127
:10031200ED91FD913196FE93EE9323960895A1D12E
:100322002B9760D210E0A989BA89E0E0F0E0ED9362
:10033200FC93EF89F88D3196EF8BF88F3197E4912A
:100342002E2FE03009F42EC1E12FE03031F42532B6
:1003520011F411E001C088D124C1E130A1F42532A9
:1003620011F482D11DC112E040E000E02D3211F4FF
:1003720001E017C12B3211F44BE213C1203211F408
:1003820040E20FC102C0E23039F450E013E0203302
:1003920011F4006806C102C0E33091F4203310F07A
:1003A2002A3308F007C0AAE05A9F502DE22FE053EB
:1003B2005E0FF7C02C3619F4026015E0F2C003C0DC
:1003C200E53009F0EEC0E22FE33639F454D156D1CC
:1003D20052D1A481AA9356D1E3C0E33729F458D16C
:1003E20059D104D11E2F07C0E03751F451D152D157
:1003F20008D11E2F08600F77E0E0E88B30E059C08B
:10040200E43611F0E93611F4046002C0E53791F4E4
:10041200EAE0E88B01FF07C0E0E0FAEC6AE97BE37F
:1004220042D11AE01FC0E0E1F7E260E070E03BD1A8
:1004320015E018C0E83511F4086003C0E83709F088
:10044200AFC0E0E1E88B01FF07C0E0E0F0E060E070
:1004520070E129D118E006C0E0E0F0E160E070E070
:1004620022D114E001FF04C013D122D18ED10CC0DD
:1004720002FF05C00DD11CD184D142D105C008D1E3
:1004820017D17FD166277727EC87FD876E877F8715
:1004920002FF0FC0AF85AA233AF4EC85FD856E8575
:1004A2007F8526D109D14DE2403011F01F5F01C096
:1004B2000B7F00FD10C0151770F407FF08C002FF84
:1004C20004C00B7F242F115001C020E301C020E2A1
:1004D200CBD05150F0CF312FE889E030B1F4303039
:1004E20099F003FF06C0EE81FF812591EE83FF8321
:1004F20005C0AE81BF812D91AE83BF83B5D0503090
:1005020009F051503150EBCF42C0DBD011D12E2F28
:100512002A3030F003FF02C0295C01C0295A01C011
:10052200205D04FD1EC0213348F4D4D0A130E0E0A8
:10053200BE07E0E08E07E0E09E0709F409C053170A
:1005420010F000FF01C011C020E207FF0AC020E343
:10055200006102FF06C00B7F4A9394D0503009F02D
:10056200515082D0503009F051503150AAD005D1AB
:10057200A3D0E889AFD0FF2766277727D9D093D0B9
:10058200E885F9856A857B851FD109F0BECF00FF1A
:1005920007C0503029F05150E0E2EA9373D0F9CF0E
:1005A20010E0C7CEA989BA89ECD023D16996089503
:1005B200FF92F82E26971AD1DE01149690D08D0163
:1005C200E0E0EC83ED83EE83EF83DE01189687D0C3
:1005D200D8D035D01A930A93E4E8F1E030D0DE01A6
:1005E20018969DDE0AD12896FF9008953AD0A991D7
:1005F200B991EE27FF276D91662311F03196FBCF5B
:1006020008952FD0AA27BB27E991F99105900020E0
:1006120011F01196FBCFFD010895EA93FA93EFB71B
:10062200EA930895F801A0916001B091610180916F
:1006320062019091630164D056D0BCD00895FA93C0
:10064200EA930895A0916001B091610180916201E5
:10065200909163010895F6DFE8EEF3E060E070E068
:100662000895BA93AA9308952A93AA89BB89EC891B
:10067200FD8909950895ED89FE8908953497ED8BDA
:10068200FE8B0895AA89BB89EC89FD890995089595
:10069200F2DFF4CFAD89BE89149673D0EE83FF8367
:1006A200AE81BF810895E887F9876A877B870895BD
:1006B200AD89BE8914960895EC87FD876E877F8782
:1006C2000895E885F9856A857B85AC85BD858E852B
:1006D2009F850895A885B9858A859B8508950024FC
:1006E200AF0DB01D0895EA0FFB1F681F791F089513
:1006F200F09560957095E195FF4F6F4F7F4F08958C
:100702006F2F660F660B762F08950024112490E157
:10071200AA0FBB1F001C111C0E1A1F0A18F40E0E82
:100722001F1E01C0A1609A9599F7FD01D00108959D
:100732003F934F935F93002411244427552730E2BF
:10074200AA0FBB1F881F991F001C111C441F551F95
:100752000E1A1F0A460B570B28F40E0E1F1E461FB9
:10076200571F01C0A1603A9559F7FD01BC01D001A4
:10077200CA015F914F913F910895DADFFD01BC01FB
:100782000895ED91FC9111970895ED91FD916D9170
:100792007C9113970895ED91FD916D917D9108954E
:1007A2007E936E93FE93EE930895E881F9816A81B8
:1007B2007B810895E883F9836A837B8308957A9322
:1007C2006A93FA93EA9308953097604070400895CF
:1007D200EA17FB07680779070895E894EE2309F002
:1007E200689408955A934A933A932A931A930A93D0
:1007F20008955D814C813B812A8119810881089588
:00000001FF
