:0400000030C05BC0F1
:100004005BC0CAC0ACC0FACFA6C0A7C0F7CF9EC021
:10001400F5CF53C0F3CF6CC0F1CFF0CFEFCFEECF1D
:10002400EDCF000000000000000000000000537449
:10003400617274696E672E2E2E2E0D0A00253032E1
:10004400643A25303364207B25647D200D0A00004A
:100054000100020026000A00040028000000F894B1
:10006400EE27ECBBF1E0FBBFEBBFE5BF8DE0A2E008
:10007400BB27ED938A95E9F780E094E0A0E6ED9341
:100084000197E9F7E4E5F0E085919591009761F037
:10009400A591B59105901590BF01F00105900D92C1
:1000A4000197E1F7FB01F0CFEFE5EDBFE4E0EEBF30
:1000B400C0E6D1E0C7C018951895E2D2CFD31BB1E2
:1000C4000CB1E12FEC7189F4E42D4394F0E0EC5988
:1000D400FE4F0083E4E1E41509F444248394E4E14D
:1000E400E81519F48824689421F8099119910FC02E
:1000F400C7D2DD2061F0DA94EA2DA394F0E0E85849
:10010400FE4FE081ECB9E4E1EA1509F4AA24E9918F
:10011400EFBFF991E9911895AA93E4E1ED15E9F39C
:10012400F894DD2011F45D990DC0EB2DB394F0E04B
:10013400E858FE4FA881A083E4E1EB1509F4BB2441
:10014400D39402C0E881ECB9789436C0EA93ECE920
:10015400E2BFE9911895C1981895C19A18956A93C8
:100164007A93AA93BA93EA93FA93EFB7EA93E6E001
:10017400E4BDA0E6B1E047D3EF5FFF4F6F4F7F4F81
:1001840047D320FCC298E991EFBFF991E991B99165
:10019400A99179916991189520FCC29A1895AA930E
:1001A400E881E06CE7B98BE18A95F1F7369A349BE4
:1001B400FECF349AE4B1F5B121960895AA934ED3B3
:1001C400EA81F0E08F01102F0027D801E4E6F0E087
:1001D400D4D28F01E0E0F1E0E01BF10B8F01F0706D
:1001E400DF01E3B5F0E0EA17FB0711F0E02FE3BD10
:1001F400689420F83AD3C4C0E89420F8C2980895CB
:1002040044D22CD30A811B8143D2AAE0A09FF001DF
:10021400A19FF00DFBBDEABDA9E0A09FF001A19F45
:10022400F00DF9BDE8BDEAE0EEBD1FD324960895B4
:10023400E0E0EEBD2DD2E0E0F0E0FBBDEABDF9BDAB
:10024400E8BD08952497FF2404EF11E0E0E0E7BB44
:10025400E8BBE4BBE5BBE1BBE2BBE2E0E3BFECE946
:10026400E2BFE0E0EFBDEAE0EEBDE0E0EDBDECBDF5
:10027400E7BDE6BDE7E2EBBDEFE0EABDE3E2E9BDE1
:10028400E7E2E8BDE0E0E2BDE3E0E5BDE6E0E4BDD1
:10029400E7EEE3BDE9EDE9BFEBB7E06CEBBFEAE005
:1002A400E5BFE0ECEABFE0E0EBB9E8EDEAB9E6E887
:1002B400E0BDE0E0E0BDE3E3E9B9E0E8E8B9E0ECA3
:1002C400E7B9E3E8E6B9E0E0E0BFEDB9E6BFEAE0AC
:1002D4005E2EE0EAF0E03F01E894F0F8E7E0E7BBE7
:1002E400E0E0E0936001E0936101E0936201E09358
:1002F4006301D3D17894E2E3F0E0DCD180E08BD1E8
:1003040022968BD2DAD19CD278F5E1E4F0E0D2D116
:10031400DDD146D2DF01CB01ECE3F0E060E070E038
:1003240064D285D2D3D161D282D2A0E038DF6627ED
:1003340077277DD28CE06FD12E96A0E0F0FCA1E06F
:10034400E1E0EA2782D2F0F8F0FE04C0AAE036DF4A
:100354006FDF09C051DFB1D1E1E2F3E060E070E0AA
:1003640044D2DF014DDF99D1CCCFFFCF8ED1AA810A
:10037400D3DEA881B981ED91FD913196FE93EE9380
:100384002396089582D12B9765D210E0A989BA8962
:10039400E0E0F0E0ED93FC93EF89F88D3196EF8B7C
:1003A400F88F3197E4912E2FE03009F42EC1E12F1C
:1003B400E03031F4253211F411E001C08DD124C1B3
:1003C400E130A1F4253211F487D11DC112E040E0DF
:1003D40000E02D3211F401E017C12B3211F44BE28D
:1003E40013C1203211F440E20FC102C0E23039F4EB
:1003F40050E013E0203311F4006806C102C0E3307A
:1004040091F4203310F02A3308F007C0AAE05A9F71
:10041400502DE22FE0535E0FF7C02C3619F4026022
:1004240015E0F2C003C0E53009F0EEC0E22FE33678
:1004340039F459D15BD157D1A481AA935BD1E3C0DC
:10044400E33729F45DD15ED104D11E2F07C0E03714
:1004540051F456D157D108D11E2F08600F77E0E030
:10046400E88B30E059C0E43611F0E93611F4046049
:1004740002C0E53791F4EAE0E88B01FF07C0E0E051
:10048400FAEC6AE97BE347D11AE01FC0E0E1F7E246
:1004940060E070E040D115E018C0E83511F4086060
:1004A40003C0E83709F0AFC0E0E1E88B01FF07C003
:1004B400E0E0F0E060E070E12ED118E006C0E0E09A
:1004C400F0E160E070E027D114E001FF04C018D12E
:1004D40027D193D10CC002FF05C012D121D189D1FB
:1004E40047D105C00DD11CD184D166277727EC876D
:1004F400FD876E877F8702FF0FC0AF85AA233AF47A
:10050400EC85FD856E857F852BD10ED14DE2403083
:1005140011F01F5F01C00B7F00FD10C0151770F4B0
:1005240007FF08C002FF04C00B7F242F115001C035
:1005340020E301C020E2D0D05150F0CF312FE88920
:10054400E030B1F4303099F003FF06C0EE81FF8152
:100554002591EE83FF8305C0AE81BF812D91AE83CB
:10056400BF83BAD0503009F051503150EBCF42C064
:10057400E0D016D12E2F2A3030F003FF02C0295CC0
:1005840001C0295A01C0205D04FD1EC0213348F476
:10059400D9D0A130E0E0BE07E0E08E07E0E09E079E
:1005A40009F409C0531710F000FF01C011C020E284
:1005B40007FF0AC020E3006102FF06C00B7F4A93D5
:1005C40099D0503009F0515087D0503009F0515033
:1005D4003150AFD00AD1A8D0E889B4D0FF2766271C
:1005E4007727DED098D0E885F9856A857B8524D184
:1005F40009F0BECF00FF07C0503029F05150E0E2AF
:10060400EA9378D0F9CF10E0C7CEA989BA89F1D09E
:1006140028D169960895FF92F82E26971FD1DE01FE
:10062400149695D08D01E0E0EC83ED83EE83EF83A7
:10063400DE0118968CD0DDD03DD01A930A93E8EBF6
:10064400F1E038D0DE0118969DDE0FD12896FF9098
:1006540008951BD0A991B991EE27FF276D916623C8
:1006640011F03196FBCF089510D0AA27BB27E9914A
:10067400F9910590002011F01196FBCFFD0108952A
:10068400EA93FA93EFB7EA930895BA93AA93089575
:10069400E0E0F0E0FDBDECBD0895F801A09160013B
:1006A400B0916101809162019091630161D053D056
:1006B400B9D00895FA93EA930895A0916001B09196
:1006C400610180916201909163010895F6DFE8EE83
:1006D400F3E060E070E008952A93AA89BB89EC896D
:1006E400FD8909950895ED89FE8908953497ED8B68
:1006F400FE8B0895AA89BB89EC89FD890995089523
:10070400F2DFF4CFAD89BE89149673D0EE83FF83F4
:10071400AE81BF810895E887F9876A877B8708954A
:10072400AD89BE8914960895EC87FD876E877F870F
:100734000895E885F9856A857B85AC85BD858E85B8
:100744009F850895A885B9858A859B850895002489
:10075400AF0DB01D0895EA0FFB1F681F791F0895A0
:10076400F09560957095E195FF4F6F4F7F4F089519
:100774006F2F660F660B762F08950024112490E1E5
:10078400AA0FBB1F001C111C0E1A1F0A18F40E0E10
:100794001F1E01C0A1609A9599F7FD01D00108952B
:1007A4003F934F935F93002411244427552730E24D
:1007B400AA0FBB1F881F991F001C111C441F551F23
:1007C4000E1A1F0A460B570B28F40E0E1F1E461F47
:1007D400571F01C0A1603A9559F7FD01BC01D00132
:1007E400CA015F914F913F910895DADFFD01BC0189
:1007F4000895ED91FC9111970895ED91FD916D91FE
:100804007C9113970895ED91FD916D917D910895DB
:100814007E936E93FE93EE930895E881F9816A8145
:100824007B810895E883F9836A837B8308957A93AF
:100834006A93FA93EA93089530976040704008955C
:10084400EA17FB07680779070895E894EE2309F08F
:10085400689408955A934A933A932A931A930A935D
:1008640008955D814C813B812A8119810881089515
:00000001FF
